:100000000C948A000C94B2000C94B2000C94B200D0
:100010000C94B2000C94B2000C94B2000C94B20098
:100020000C94B2000C94B2000C94B2000C94B20088
:100030000C94B2000C94B2000C94B2000C94B20078
:100040000C9446030C94B2000C9414030C94EE022E
:100050000C94B2000C94B2000C94B2000C94B20058
:100060000C94B2000C94B20008000000BE92244927
:10007000123EABAAAA2ABECDCCCC4C3E00000080DA
:10008000BEABAAAAAA3E00000000BF000000803F4D
:100090000000000000084178D3BB4387D1133D190D
:1000A0000E3CC3BD4282AD2B3E68EC8276BED98F3A
:1000B000E1A93E4C80EFFFBE01C4FF7F3F0000007E
:1000C000000000000000240027002A0000000000BB
:1000D000250028002B000404040404040404020284
:1000E00002020202030303030303010204081020B7
:1000F00040800102040810200102040810200000C2
:1001000000080002010000030407000000000000D6
:100110000000010511241FBECFEFD8E0DEBFCDBF28
:1001200011E0A0E0B1E0EAEDFFE002C005900D9221
:10013000A032B107D9F721E0A0E2B1E001C01D92E1
:10014000A63CB207E1F710E0CAE8D0E004C021976E
:10015000FE010E94E507C938D107C9F70E94900344
:100160000C94EB070C940000E7E0F1E02491E3EF3E
:10017000F0E09491EFEDF0E0E491EE23C9F022235A
:1001800039F0233001F1A8F4213019F1223029F19E
:10019000F0E0EE0FFF1FE453FF4FA591B4912FB78E
:1001A000F894EC91811126C090959E239C932FBFCB
:1001B00008952730A9F02830C9F0243049F720915C
:1001C00080002F7D03C0209180002F772093800036
:1001D000DFCF24B52F7724BDDBCF24B52F7DFBCF18
:1001E0002091B0002F772093B000D2CF2091B000A3
:1001F0002F7DF9CF9E2BDACFE3EFF0E02491EFEDE6
:10020000F0E08491882399F090E0880F991FFC0119
:10021000EE53FF4FA591B491FC01E453FF4F85913C
:1002200094918FB7F894EC91E22BEC938FBF0895E3
:10023000AF92BF92CF92DF92EF92FF920F931F93F4
:10024000CF93DF936C017B018B01040F151FEB0132
:100250005E01AE18BF08C017D10759F06991D601E9
:10026000ED91FC910190F081E02DC6010995892B5B
:1002700079F7C501DF91CF911F910F91FF90EF901A
:10028000DF90CF90BF90AF900895FC01538D448DC7
:10029000252F30E0842F90E0821B930B541710F031
:1002A000CF96089501970895FC01918D828D98173E
:1002B00061F0A28DAE0FBF2FB11D5D968C91928D16
:1002C0009F5F9F73928F90E008958FEF9FEF089547
:1002D000FC01918D828D981731F0828DE80FF11D10
:1002E000858D90E008958FEF9FEF0895FC01918D2B
:1002F000228D892F90E0805C9F4F821B91098F7324
:100300009927089589E291E00E94760121E0892BE6
:1003100009F420E0822F089580E090E0892B29F0F5
:100320000E94820181110C9400000895FC01A48DAB
:10033000A80FB92FB11DA35ABF4F2C91848D90E007
:1003400001968F739927848FA689B7892C93A089EA
:10035000B1898C91837080648C93938D848D981374
:1003600006C00288F389E02D80818F7D8083089507
:10037000EF92FF920F931F93CF93DF93EC0181E0F5
:10038000888F9B8D8C8D98131AC0E889F98980819C
:1003900085FF15C09FB7F894EE89FF896083E889CF
:1003A000F98980818370806480839FBF81E090E0C1
:1003B000DF91CF911F910F91FF90EF900895F62E4E
:1003C0000B8D10E00F5F1F4F0F731127E02E8C8DE8
:1003D0008E110CC00FB607FCFACFE889F98980812D
:1003E00085FFF5CFCE010E949601F1CFEB8DEC0F8A
:1003F000FD2FF11DE35AFF4FF0829FB7F8940B8F4A
:10040000EA89FB8980818062CFCFCF93DF93EC01B3
:10041000888D8823B9F0AA89BB89E889F9898C91EC
:1004200085FD03C0808186FD0DC00FB607FCF7CFA8
:100430008C9185FFF2CF808185FFEDCFCE010E94A8
:100440009601E9CFDF91CF9108958E50806480931B
:100450007C0080917A00806480937A0080917A0099
:1004600086FDFCCF809178009091790008953FB788
:10047000F8948091250190912601A0912701B091D7
:10048000280126B5A89B05C02F3F19F00196A11D94
:10049000B11D3FBFBA2FA92F982F8827BC01CD01CE
:1004A000620F711D811D911D42E0660F771F881F2D
:1004B000991F4A95D1F70895FC0101900020E9F7B2
:1004C0003197AF01481B590BBC0189E291E00C94B4
:1004D00018018F929F92AF92BF92CF92DF92EF92CC
:1004E000FF920F931F93CF93DF93CDB7DEB7A19702
:1004F0000FB6F894DEBF0FBECDBF6C01990FEE08AA
:10050000FF08F7FE47C06DE289E291E00E94B80162
:100510008C0122273327A9012C193D094E095F09B7
:1005200019A2CE0181967C019AE0892E912CA12CF2
:10053000B12CCA01B901A50194010E94C307605DF5
:10054000F70162937F01211531054105510589F7B6
:1005500090E080E0309719F0CF010E945C02080F14
:10056000191F82E191E00E945C02800F911FA19609
:100570000FB6F894DEBF0FBECDBFDF91CF911F91B4
:100580000F91FF90EF90DF90CF90BF90AF909F9032
:100590008F900895A701960119A28E010F5D1F4F3C
:1005A0008AE0C82ED12CE12CF12CCA01B901A70197
:1005B00096010E94C307605DF80162938F012115C7
:1005C00031054105510589F7309729F0CF010E9487
:1005D0005C028C01C6CF10E000E0C3CF1F920F92E7
:1005E0000FB60F9211242F933F934F935F936F9306
:1005F0007F938F939F93AF93BF93EF93FF9389E282
:1006000091E00E949601FF91EF91BF91AF919F9170
:100610008F917F916F915F914F913F912F910F90AB
:100620000FBE0F901F9018951F920F920FB60F924A
:1006300011242F938F939F93EF93FF93E0913901B0
:10064000F0913A018081E0913F01F091400182FDFB
:100650001BC09081809142018F5F8F732091430175
:10066000821741F0E0914201F0E0E75DFE4F958F87
:1006700080934201FF91EF919F918F912F910F9065
:100680000FBE0F901F9018958081F4CF1F920F928C
:100690000FB60F9211242F933F938F939F93AF9395
:1006A000BF938091210190912201A0912301B091EB
:1006B00024013091200123E0230F2D3758F50196B6
:1006C000A11DB11D2093200180932101909322014F
:1006D000A0932301B09324018091250190912601DC
:1006E000A0912701B09128010196A11DB11D809311
:1006F000250190932601A0932701B0932801BF9173
:10070000AF919F918F913F912F910F900FBE0F90BE
:100710001F90189526E8230F0296A11DB11DD2CF78
:10072000789484B5826084BD84B5816084BD85B5CC
:10073000826085BD85B5816085BD80916E008160D8
:1007400080936E001092810080918100826080937E
:100750008100809181008160809381008091800080
:100760008160809380008091B10084608093B100AB
:100770008091B00081608093B00080917A008460A5
:1007800080937A0080917A00826080937A008091D1
:100790007A00816080937A0080917A0080688093EB
:1007A0007A001092C100E0913901F0913A0182E0A3
:1007B0008083E0913501F09136011082E09137019C
:1007C000F09138018FEC808310924101E0913D015E
:1007D000F0913E0186E08083E0913B01F0913C0185
:1007E000808180618083E0913B01F0913C018081B8
:1007F00088608083E0913B01F0913C0180818068BA
:100800008083E0913B01F0913C0180818F7D80836A
:1008100097E0492E91E0592E04E610E024E6322EAE
:1008200030E0632E30E0732E8EE00E942502BC0182
:10083000990F880B990B0E9445069B01AC0160E063
:1008400070EC8FE794E40E949B0520E030E040E8E4
:100850005FE30E942E0520E030E543EC57E40E9460
:10086000210720E030E543EC57E40E949B050E94FD
:10087000D90620E038E945E855E40E949B052FE0C1
:100880003FEC4BE55BE30E942F059B01AC0160E070
:1008900070E080E89FE30E949B0523E333E948E88A
:1008A00053E40E942E050E940D064B018FE00E942A
:1008B00025026C0180E10E9425027C0181E10E94F9
:1008C0002502EC0180E10E942502CC3221E0D20712
:1008D00074F485E191E00E945C0282E191E00E9463
:1008E0005C020E94FC0080E00E94B40033C0CC3265
:1008F00081E0D80779F188E191E00E945C0282E111
:1009000091E00E945C020E94FC00F201849183301D
:1009100009F45DC048F48130C9F0823021F784B514
:10092000806284BD38BC16C0873009F45AC0883054
:1009300009F45FC08430B9F68091800080628093B2
:10094000800010938B0000938A0004C084B58068F7
:1009500084BD37BCC4010E946902C6010E946902BD
:10096000C7010E946902CE010E9469020E943702FB
:100970006B017C0188EE882E83E0982EA12CB12C8F
:100980000E9437026C197D098E099F09683E7340E9
:1009900081059105A8F3F1E08F1A9108A108B1082B
:1009A00028EEC20E23E0D21EE11CF11C811491043A
:1009B000A104B10429F76114710409F435CF0E9430
:1009C0008201882309F430CF0E9400002DCF80914E
:1009D00080008068809380001093890000938800D5
:1009E000B9CF8091B00080688093B0003092B3009E
:1009F000B1CF8091B00080628093B0003092B4009B
:100A0000A9CFE9E2F1E01382128288EE93E0A0E040
:100A1000B0E084839583A683B78384E091E09183DB
:100A2000808385EC90E09587848784EC90E09787BD
:100A3000868780EC90E0918B808B81EC90E0938BAB
:100A4000828B82EC90E0958B848B86EC90E0978B88
:100A5000868B118E128E138E148E08955058BB27DC
:100A6000AA270E9446050C9497060E94890638F032
:100A70000E94900620F039F49F3F19F426F40C945C
:100A800086060EF4E095E7FB0C948006E92F0E94A1
:100A9000A80658F3BA17620773078407950720F072
:100AA00079F4A6F50C94CA060EF4E0950B2EBA2F35
:100AB000A02D0B01B90190010C01CA01A001112464
:100AC000FF27591B99F0593F50F4503E68F11A1610
:100AD000F040A22F232F342F4427585FF3CF4695A1
:100AE00037952795A795F0405395C9F77EF41F16C3
:100AF000BA0B620B730B840BBAF09150A1F0FF0F8D
:100B0000BB1F661F771F881FC2F70EC0BA0F621F78
:100B1000731F841F48F4879577956795B795F79568
:100B20009E3F08F0B0CF9395880F08F09927EE0FFD
:100B30009795879508950E94AF050C9497060E949B
:100B4000900658F00E94890640F029F45F3F29F092
:100B50000C94800651110C94CB060C9486060E94CE
:100B6000A80668F39923B1F3552391F3951B550B10
:100B7000BB27AA2762177307840738F09F5F5F4F70
:100B8000220F331F441FAA1FA9F335D00E2E3AF0AF
:100B9000E0E832D091505040E695001CCAF72BD0C7
:100BA000FE2F29D0660F771F881FBB1F2617370718
:100BB0004807AB07B0E809F0BB0B802DBF01FF274A
:100BC00093585F4F3AF09E3F510578F00C948006A1
:100BD0000C94CB065F3FE4F3983ED4F3869577956B
:100BE0006795B795F7959F5FC9F7880F911D969503
:100BF000879597F90895E1E0660F771F881FBB1F5F
:100C0000621773078407BA0720F0621B730B840B0B
:100C1000BA0BEE1F88F7E09508950E9414066894B9
:100C2000B1110C94CB0608950E94B00688F09F572E
:100C300098F0B92F9927B751B0F0E1F0660F771F00
:100C4000881F991F1AF0BA95C9F714C0B13091F0F6
:100C50000E94CA06B1E008950C94CA06672F782F47
:100C60008827B85F39F0B93FCCF3869577956795BB
:100C7000B395D9F73EF490958095709561957F4F27
:100C80008F4F9F4F0895E89409C097FB3EF49095CD
:100C90008095709561957F4F8F4F9F4F9923A9F055
:100CA000F92F96E9BB279395F695879577956795E4
:100CB000B795F111F8CFFAF4BB0F11F460FF1BC028
:100CC0006F5F7F4F8F4F9F4F16C0882311F096E9BB
:100CD00011C0772321F09EE8872F762F05C0662369
:100CE00071F096E8862F70E060E02AF09A95660F22
:100CF000771F881FDAF7880F9695879597F90895DB
:100D000097F99F6780E870E060E008959FEF80ECBE
:100D1000089500240A941616170618060906089561
:100D200000240A9412161306140605060895092EC7
:100D30000394000C11F4882352F0BB0F40F4BF2B36
:100D400011F460FF04C06F5F7F4F8F4F9F4F089576
:100D500057FD9058440F551F59F05F3F71F047956C
:100D6000880F97FB991F61F09F3F79F08795089551
:100D7000121613061406551FF2CF4695F1DF08C070
:100D8000161617061806991FF1CF8695710561058D
:100D900008940895E894BB2766277727CB0197F935
:100DA000089516F00C948E070C94860668940C94A3
:100DB00080060E94B006A8F39923C1F3AEF3DF9337
:100DC000CF931F930F93FF92C92FDD2788232AF01B
:100DD0002197660F771F881FDAF720E030E040E8A0
:100DE0005FEB9FE3883920F0803E38F021968F77C3
:100DF0000E942F05E8E6F0E004C00E942F05E5E917
:100E0000F0E00E949C078B01BE01EC01FB2E6F57A6
:100E100071097595771F880B990B0E94450628E18B
:100E200032E741E35FE30E943407AF2D9801AE0142
:100E3000FF900F911F91CF91DF910E9446050C9476
:100E400097060E9434070C9497060E94890638F092
:100E50000E94900620F0952311F00C9480060C94CB
:100E6000860611240C94CB060E94A80670F3959F69
:100E7000C1F3950F50E0551F629FF001729FBB2791
:100E8000F00DB11D639FAA27F00DB11DAA1F649F2D
:100E90006627B00DA11D661F829F2227B00DA11DE0
:100EA000621F739FB00DA11D621F839FA00D611D66
:100EB000221F749F3327A00D611D231F849F600D87
:100EC000211D822F762F6A2F11249F5750409AF0B0
:100ED000F1F088234AF0EE0FFF1FBB1F661F771F3C
:100EE000881F91505040A9F79E3F510580F00C9407
:100EF00080060C94CB065F3FE4F3983ED4F38695CE
:100F000077956795B795F795E7959F5FC1F7FE2BA6
:100F1000880F911D9695879597F908959F3F31F019
:100F2000915020F4879577956795B795880F911D17
:100F30009695879597F90895DF93CF931F930F9315
:100F4000FF92EF92DF927B018C01689406C0DA2E4B
:100F5000EF010E943407FE01E894A5912591359197
:100F600045915591A6F3EF010E944605FE019701B8
:100F7000A801DA9469F7DF90EF90FF900F911F912D
:100F8000CF91DF910895A1E21A2EAA1BBB1BFD0190
:100F90000DC0AA1FBB1FEE1FFF1FA217B307E40758
:100FA000F50720F0A21BB30BE40BF50B661F771FB0
:100FB000881F991F1A9469F7609570958095909590
:100FC0009B01AC01BD01CF010895EE0FFF1F0590FD
:0A0FD000F491E02D0994F894FFCF8E
:100FDA0000000000B801180145010502760154011C
:100FEA0068010D0A007065752068756D6964650091
:00000001FF
